:100000000C942A000C9434000C9434000C943400AA
:100010000C9434000C9434000C9434000C94340090
:100020000C9434000C9434000C9434000C94340080
:100030000C9434000C9434000C9434000C94340070
:100040000C9434000C9434000C9434000C94340060
:100050000C94340011241FBECFE5D8E0DEBFCDBF25
:100060000E9436000C9470000C9400008FEF8ABB45
:1000700020E030E016C04BB381E090E0022E02C0D9
:10008000880F991F0A94E2F784278BBB4FEF84E314
:100090009CE0415080409040E1F700C000002F5F9D
:1000A0003F4F283031053CF327E030E016C04BB31A
:1000B00081E090E0022E02C0880F991F0A94E2F7B7
:1000C00084278BBB4FEF84E39CE0415080409040FD
:1000D000E1F700C0000021503109332344F7C8CFB5
:0400E000F894FFCFC2
:00000001FF
