S0170000736563315F756E6974375F6C6162322E737265638B
S11300000C942A000C9434000C9434000C943400A6
S11300100C9434000C9434000C9434000C9434008C
S11300200C9434000C9434000C9434000C9434007C
S11300300C9434000C9434000C9434000C9434006C
S11300400C9434000C9434000C9434000C9434005C
S11300500C94340011241FBECFE5D8E0DEBFCDBF21
S11300600E9436000C945A000C9400008FEF8ABB57
S113007084B38E7F84BB85B3816085BB61E070E00F
S11300809899FECF989BFECF20E030E00DC04BB393
S113009081E090E0022E02C0880F991F0A94E2F7D3
S11300A0842B8BBB2F5F3F4F2617370784F36F5F7B
S10B00B07F4FE6CFF894FFCF67
S9030000FC
