S0170000736563315F756E6974375F6C6162332E737265638A
S11300000C942A000C9434000C9434000C943400A6
S11300100C9434000C9434000C9434000C9434008C
S11300200C9434000C9434000C9434000C9434007C
S11300300C9434000C9434000C9434000C9434006C
S11300400C9434000C9434000C9434000C9434005C
S11300500C94340011241FBECFE5D8E0DEBFCDBF21
S11300600E9436000C9463000C9400008FEF81BB57
S113007084B38E7F84BB85B3816085BB41E098994E
S1130080FECF989BFECF20E017C032B381E090E012
S1130090022E02C0880F991F0A94E2F7832B82BBB9
S11300A0233049F43FEF89E698E131508040904095
S11300B0E1F700C000002F5F241738F34F5F45308D
S10D00C0F0F212BADBCFF894FFCF80
S9030000FC
